{
  "contractName": "FreelancerContract",
  "abi": [
    {
      "constant": true,
      "inputs": [
        {
          "name": "",
          "type": "address"
        }
      ],
      "name": "freelancers",
      "outputs": [
        {
          "name": "firstName",
          "type": "string"
        },
        {
          "name": "lastName",
          "type": "string"
        },
        {
          "name": "areaOfExpertise",
          "type": "string"
        },
        {
          "name": "yearsOfExperience",
          "type": "uint256"
        },
        {
          "name": "isProfileCreated",
          "type": "bool"
        }
      ],
      "payable": false,
      "stateMutability": "view",
      "type": "function"
    },
    {
      "anonymous": false,
      "inputs": [
        {
          "indexed": true,
          "name": "freelancer",
          "type": "address"
        },
        {
          "indexed": false,
          "name": "firstName",
          "type": "string"
        },
        {
          "indexed": false,
          "name": "lastName",
          "type": "string"
        },
        {
          "indexed": false,
          "name": "areaOfExpertise",
          "type": "string"
        },
        {
          "indexed": false,
          "name": "yearsOfExperience",
          "type": "uint256"
        }
      ],
      "name": "ProfileCreated",
      "type": "event"
    },
    {
      "constant": false,
      "inputs": [
        {
          "name": "_firstName",
          "type": "string"
        },
        {
          "name": "_lastName",
          "type": "string"
        },
        {
          "name": "_areaOfExpertise",
          "type": "string"
        },
        {
          "name": "_yearsOfExperience",
          "type": "uint256"
        }
      ],
      "name": "createProfile",
      "outputs": [],
      "payable": false,
      "stateMutability": "nonpayable",
      "type": "function"
    }
  ],
  "bytecode": "0x608060405234801561001057600080fd5b506109c3806100206000396000f3fe608060405260043610610046576000357c01000000000000000000000000000000000000000000000000000000009004806321bd66931461004b578063f4a4adf0146101ff575b600080fd5b34801561005757600080fd5b5061009a6004803603602081101561006e57600080fd5b81019080803573ffffffffffffffffffffffffffffffffffffffff169060200190929190505050610339565b6040518080602001806020018060200186815260200185151515158152602001848103845289818151815260200191508051906020019080838360005b838110156100f25780820151818401526020810190506100d7565b50505050905090810190601f16801561011f5780820380516001836020036101000a031916815260200191505b50848103835288818151815260200191508051906020019080838360005b8381101561015857808201518184015260208101905061013d565b50505050905090810190601f1680156101855780820380516001836020036101000a031916815260200191505b50848103825287818151815260200191508051906020019080838360005b838110156101be5780820151818401526020810190506101a3565b50505050905090810190601f1680156101eb5780820380516001836020036101000a031916815260200191505b509850505050505050505060405180910390f35b34801561020b57600080fd5b506103376004803603608081101561022257600080fd5b810190808035906020019064010000000081111561023f57600080fd5b82018360208201111561025157600080fd5b8035906020019184600183028401116401000000008311171561027357600080fd5b90919293919293908035906020019064010000000081111561029457600080fd5b8201836020820111156102a657600080fd5b803590602001918460018302840111640100000000831117156102c857600080fd5b9091929391929390803590602001906401000000008111156102e957600080fd5b8201836020820111156102fb57600080fd5b8035906020019184600183028401116401000000008311171561031d57600080fd5b909192939192939080359060200190929190505050610544565b005b6000602052806000526040600020600091509050806000018054600181600116156101000203166002900480601f0160208091040260200160405190810160405280929190818152602001828054600181600116156101000203166002900480156103e55780601f106103ba576101008083540402835291602001916103e5565b820191906000526020600020905b8154815290600101906020018083116103c857829003601f168201915b505050505090806001018054600181600116156101000203166002900480601f0160208091040260200160405190810160405280929190818152602001828054600181600116156101000203166002900480156104835780601f1061045857610100808354040283529160200191610483565b820191906000526020600020905b81548152906001019060200180831161046657829003601f168201915b505050505090806002018054600181600116156101000203166002900480601f0160208091040260200160405190810160405280929190818152602001828054600181600116156101000203166002900480156105215780601f106104f657610100808354040283529160200191610521565b820191906000526020600020905b81548152906001019060200180831161050457829003601f168201915b5050505050908060030154908060040160009054906101000a900460ff16905085565b6000803373ffffffffffffffffffffffffffffffffffffffff1673ffffffffffffffffffffffffffffffffffffffff16815260200190815260200160002060040160009054906101000a900460ff16151515610608576040517f08c379a00000000000000000000000000000000000000000000000000000000081526004018080602001828103825260168152602001807f50726f66696c6520616c7265616479206578697374730000000000000000000081525060200191505060405180910390fd5b6106106108c0565b60a06040519081016040528089898080601f016020809104026020016040519081016040528093929190818152602001838380828437600081840152601f19601f82011690508083019250505050505050815260200187878080601f016020809104026020016040519081016040528093929190818152602001838380828437600081840152601f19601f82011690508083019250505050505050815260200185858080601f016020809104026020016040519081016040528093929190818152602001838380828437600081840152601f19601f820116905080830192505050505050508152602001838152602001600115158152509050806000803373ffffffffffffffffffffffffffffffffffffffff1673ffffffffffffffffffffffffffffffffffffffff16815260200190815260200160002060008201518160000190805190602001906107649291906108f2565b5060208201518160010190805190602001906107819291906108f2565b50604082015181600201908051906020019061079e9291906108f2565b506060820151816003015560808201518160040160006101000a81548160ff0219169083151502179055509050503373ffffffffffffffffffffffffffffffffffffffff167ff7d91b4fd15f500252d7193ae23aba08123c8a7c84f3a7617de1ff697d4f57c6898989898989896040518080602001806020018060200185815260200184810384528b8b82818152602001925080828437600081840152601f19601f8201169050808301925050508481038352898982818152602001925080828437600081840152601f19601f8201169050808301925050508481038252878782818152602001925080828437600081840152601f19601f8201169050808301925050509a505050505050505050505060405180910390a25050505050505050565b60a060405190810160405280606081526020016060815260200160608152602001600081526020016000151581525090565b828054600181600116156101000203166002900490600052602060002090601f016020900481019282601f1061093357805160ff1916838001178555610961565b82800160010185558215610961579182015b82811115610960578251825591602001919060010190610945565b5b50905061096e9190610972565b5090565b61099491905b80821115610990576000816000905550600101610978565b5090565b9056fea165627a7a7230582093c450834fc98ee9dc7a27765baa9b5831cdda047d3ec0c6db328b71364963410029",
  "source": "// SPDX-License-Identifier: MIT\r\npragma solidity >=0.5.0 <0.9.0;\r\n\r\ncontract FreelancerContract {\r\n    struct Freelancer {\r\n        string firstName;\r\n        string lastName;\r\n        string areaOfExpertise;\r\n        uint yearsOfExperience;\r\n        bool isProfileCreated;\r\n    }\r\n\r\n    mapping(address => Freelancer) public freelancers;\r\n\r\n    event ProfileCreated(address indexed freelancer, string firstName, string lastName, string areaOfExpertise, uint yearsOfExperience);\r\n\r\n    function createProfile(string calldata _firstName, string calldata _lastName, string calldata _areaOfExpertise, uint _yearsOfExperience) external {\r\n        require(!freelancers[msg.sender].isProfileCreated, \"Profile already exists\");\r\n        \r\n        Freelancer memory newFreelancer = Freelancer({\r\n            firstName: _firstName,\r\n            lastName: _lastName,\r\n            areaOfExpertise: _areaOfExpertise,\r\n            yearsOfExperience: _yearsOfExperience,\r\n            isProfileCreated: true\r\n        });\r\n\r\n        freelancers[msg.sender] = newFreelancer;\r\n        emit ProfileCreated(msg.sender, _firstName, _lastName, _areaOfExpertise, _yearsOfExperience);\r\n    }\r\n}\r\n",
  "sourcePath": "C:\\Users\\16032\\Downloads\\Dapp (3)\\Dapp (2)\\Dapp\\contracts\\FreelancerContract.sol",
  "compiler": {
    "name": "solc",
    "version": "0.5.1+commit.c8a2cb62.Emscripten.clang"
  },
  "schemaVersion": "3.4.16",
  "updatedAt": "2024-04-30T16:03:20.313Z",
  "networkType": "ethereum",
  "devdoc": {
    "methods": {}
  },
  "userdoc": {
    "methods": {}
  }
}