{
  "contractName": "OrderContract",
  "abi": [
    {
      "constant": true,
      "inputs": [],
      "name": "orderCount",
      "outputs": [
        {
          "name": "",
          "type": "uint256"
        }
      ],
      "payable": false,
      "stateMutability": "view",
      "type": "function"
    },
    {
      "constant": true,
      "inputs": [
        {
          "name": "",
          "type": "uint256"
        }
      ],
      "name": "orders",
      "outputs": [
        {
          "name": "orderId",
          "type": "uint256"
        },
        {
          "name": "jobTitle",
          "type": "string"
        },
        {
          "name": "jobDescription",
          "type": "string"
        },
        {
          "name": "numberOfDays",
          "type": "uint256"
        },
        {
          "name": "payPerHour",
          "type": "uint256"
        },
        {
          "name": "customer",
          "type": "address"
        },
        {
          "name": "freelancer",
          "type": "address"
        },
        {
          "name": "isAccepted",
          "type": "bool"
        },
        {
          "name": "isCompleted",
          "type": "bool"
        }
      ],
      "payable": false,
      "stateMutability": "view",
      "type": "function"
    },
    {
      "anonymous": false,
      "inputs": [
        {
          "indexed": false,
          "name": "orderId",
          "type": "uint256"
        },
        {
          "indexed": true,
          "name": "customer",
          "type": "address"
        }
      ],
      "name": "OrderPlaced",
      "type": "event"
    },
    {
      "constant": false,
      "inputs": [
        {
          "name": "_jobTitle",
          "type": "string"
        },
        {
          "name": "_jobDescription",
          "type": "string"
        },
        {
          "name": "_numberOfDays",
          "type": "uint256"
        },
        {
          "name": "_payPerHour",
          "type": "uint256"
        }
      ],
      "name": "placeOrder",
      "outputs": [],
      "payable": false,
      "stateMutability": "nonpayable",
      "type": "function"
    }
  ],
  "bytecode": "0x608060405234801561001057600080fd5b50610870806100206000396000f3fe608060405260043610610051576000357c0100000000000000000000000000000000000000000000000000000000900480632453ffa814610056578063a85c38ef14610081578063f8a2d7c214610232575b600080fd5b34801561006257600080fd5b5061006b6103a5565b6040518082815260200191505060405180910390f35b34801561008d57600080fd5b506100ba600480360360208110156100a457600080fd5b81019080803590602001909291905050506103ab565b604051808a815260200180602001806020018981526020018881526020018773ffffffffffffffffffffffffffffffffffffffff1673ffffffffffffffffffffffffffffffffffffffff1681526020018673ffffffffffffffffffffffffffffffffffffffff1673ffffffffffffffffffffffffffffffffffffffff168152602001851515151581526020018415151515815260200183810383528b818151815260200191508051906020019080838360005b8381101561018857808201518184015260208101905061016d565b50505050905090810190601f1680156101b55780820380516001836020036101000a031916815260200191505b5083810382528a818151815260200191508051906020019080838360005b838110156101ee5780820151818401526020810190506101d3565b50505050905090810190601f16801561021b5780820380516001836020036101000a031916815260200191505b509b50505050505050505050505060405180910390f35b34801561023e57600080fd5b506103a36004803603608081101561025557600080fd5b810190808035906020019064010000000081111561027257600080fd5b82018360208201111561028457600080fd5b803590602001918460018302840111640100000000831117156102a657600080fd5b91908080601f016020809104026020016040519081016040528093929190818152602001838380828437600081840152601f19601f8201169050808301925050505050505091929192908035906020019064010000000081111561030957600080fd5b82018360208201111561031b57600080fd5b8035906020019184600183028401116401000000008311171561033d57600080fd5b91908080601f016020809104026020016040519081016040528093929190818152602001838380828437600081840152601f19601f8201169050808301925050505050505091929192908035906020019092919080359060200190929190505050610583565b005b60015481565b6000602052806000526040600020600091509050806000015490806001018054600181600116156101000203166002900480601f01602080910402602001604051908101604052809291908181526020018280546001816001161561010002031660029004801561045d5780601f106104325761010080835404028352916020019161045d565b820191906000526020600020905b81548152906001019060200180831161044057829003601f168201915b505050505090806002018054600181600116156101000203166002900480601f0160208091040260200160405190810160405280929190818152602001828054600181600116156101000203166002900480156104fb5780601f106104d0576101008083540402835291602001916104fb565b820191906000526020600020905b8154815290600101906020018083116104de57829003601f168201915b5050505050908060030154908060040154908060050160009054906101000a900473ffffffffffffffffffffffffffffffffffffffff16908060060160009054906101000a900473ffffffffffffffffffffffffffffffffffffffff16908060060160149054906101000a900460ff16908060060160159054906101000a900460ff16905089565b6001600081548092919060010191905055506101206040519081016040528060015481526020018581526020018481526020018381526020018281526020013373ffffffffffffffffffffffffffffffffffffffff168152602001600073ffffffffffffffffffffffffffffffffffffffff16815260200160001515815260200160001515815250600080600154815260200190815260200160002060008201518160000155602082015181600101908051906020019061064592919061079f565b50604082015181600201908051906020019061066292919061079f565b50606082015181600301556080820151816004015560a08201518160050160006101000a81548173ffffffffffffffffffffffffffffffffffffffff021916908373ffffffffffffffffffffffffffffffffffffffff16021790555060c08201518160060160006101000a81548173ffffffffffffffffffffffffffffffffffffffff021916908373ffffffffffffffffffffffffffffffffffffffff16021790555060e08201518160060160146101000a81548160ff0219169083151502179055506101008201518160060160156101000a81548160ff0219169083151502179055509050503373ffffffffffffffffffffffffffffffffffffffff167f5222ba5f86a58ad15e7771bd95a809f162ae1762ea7cd66e28a58217341334cc6001546040518082815260200191505060405180910390a250505050565b828054600181600116156101000203166002900490600052602060002090601f016020900481019282601f106107e057805160ff191683800117855561080e565b8280016001018555821561080e579182015b8281111561080d5782518255916020019190600101906107f2565b5b50905061081b919061081f565b5090565b61084191905b8082111561083d576000816000905550600101610825565b5090565b9056fea165627a7a72305820c10f9c93031465e14a46117037cc4dd81874f3b205cff75de23c1c4065e550100029",
  "source": "// SPDX-License-Identifier: MIT \r\npragma solidity >=0.5.0 <0.9.0;\r\n\r\ncontract OrderContract {\r\n    struct Order {\r\n        uint256 orderId;\r\n        string jobTitle;\r\n        string jobDescription;\r\n        uint256 numberOfDays;\r\n        uint256 payPerHour;\r\n        address customer;\r\n        address freelancer;\r\n        bool isAccepted;\r\n        bool isCompleted;\r\n    }\r\n\r\n    mapping(uint256 => Order) public orders;\r\n    uint256 public orderCount;\r\n\r\n    event OrderPlaced(uint256 orderId, address indexed customer);\r\n\r\n    function placeOrder(string memory _jobTitle, string memory _jobDescription, uint256 _numberOfDays, uint256 _payPerHour) public {\r\n        orderCount++;\r\n        orders[orderCount] = Order(orderCount, _jobTitle, _jobDescription, _numberOfDays, _payPerHour, msg.sender, address(0), false, false);\r\n        emit OrderPlaced(orderCount, msg.sender);\r\n    }\r\n}\r\n",
  "sourcePath": "C:\\Users\\16032\\Downloads\\Dapp (3)\\Dapp (2)\\Dapp\\contracts\\OrderContract.sol",
  "compiler": {
    "name": "solc",
    "version": "0.5.1+commit.c8a2cb62.Emscripten.clang"
  },
  "schemaVersion": "3.4.16",
  "updatedAt": "2024-04-30T16:03:19.597Z",
  "networkType": "ethereum",
  "devdoc": {
    "methods": {}
  },
  "userdoc": {
    "methods": {}
  }
}