{
  "contractName": "WalletContract",
  "abi": [
    {
      "constant": true,
      "inputs": [
        {
          "name": "",
          "type": "address"
        }
      ],
      "name": "balances",
      "outputs": [
        {
          "name": "",
          "type": "uint256"
        }
      ],
      "payable": false,
      "stateMutability": "view",
      "type": "function"
    },
    {
      "anonymous": false,
      "inputs": [
        {
          "indexed": true,
          "name": "user",
          "type": "address"
        }
      ],
      "name": "WalletCreated",
      "type": "event"
    },
    {
      "constant": false,
      "inputs": [],
      "name": "createWallet",
      "outputs": [],
      "payable": false,
      "stateMutability": "nonpayable",
      "type": "function"
    },
    {
      "constant": false,
      "inputs": [
        {
          "name": "_to",
          "type": "address"
        },
        {
          "name": "_amount",
          "type": "uint256"
        }
      ],
      "name": "transfer",
      "outputs": [],
      "payable": false,
      "stateMutability": "nonpayable",
      "type": "function"
    }
  ],
  "bytecode": "0x608060405234801561001057600080fd5b5061040a806100206000396000f3fe608060405260043610610051576000357c01000000000000000000000000000000000000000000000000000000009004806311ebbf241461005657806327e235e31461006d578063a9059cbb146100d2575b600080fd5b34801561006257600080fd5b5061006b61012d565b005b34801561007957600080fd5b506100bc6004803603602081101561009057600080fd5b81019080803573ffffffffffffffffffffffffffffffffffffffff169060200190929190505050610274565b6040518082815260200191505060405180910390f35b3480156100de57600080fd5b5061012b600480360360408110156100f557600080fd5b81019080803573ffffffffffffffffffffffffffffffffffffffff1690602001909291908035906020019092919050505061028c565b005b60008060003373ffffffffffffffffffffffffffffffffffffffff1673ffffffffffffffffffffffffffffffffffffffff168152602001908152602001600020541415156101e3576040517f08c379a00000000000000000000000000000000000000000000000000000000081526004018080602001828103825260158152602001807f57616c6c657420616c726561647920657869737473000000000000000000000081525060200191505060405180910390fd5b68056bc75e2d631000006000803373ffffffffffffffffffffffffffffffffffffffff1673ffffffffffffffffffffffffffffffffffffffff168152602001908152602001600020819055503373ffffffffffffffffffffffffffffffffffffffff167f234cf33b32239d80b54161e2396c80cdeaf4d34161300e54d8bc01eb7c0ea55360405160405180910390a2565b60006020528060005260406000206000915090505481565b806000803373ffffffffffffffffffffffffffffffffffffffff1673ffffffffffffffffffffffffffffffffffffffff1681526020019081526020016000205410151515610342576040517f08c379a00000000000000000000000000000000000000000000000000000000081526004018080602001828103825260148152602001807f496e73756666696369656e742062616c616e636500000000000000000000000081525060200191505060405180910390fd5b806000803373ffffffffffffffffffffffffffffffffffffffff1673ffffffffffffffffffffffffffffffffffffffff16815260200190815260200160002060008282540392505081905550806000808473ffffffffffffffffffffffffffffffffffffffff1673ffffffffffffffffffffffffffffffffffffffff16815260200190815260200160002060008282540192505081905550505056fea165627a7a72305820813dd8f23fe103ed2dd6107b1b4774673e4da786f8ff5643ed81261e90bfbc670029",
  "source": "\r\n// SPDX-License-Identifier: MIT \r\npragma solidity >=0.5.0 <0.9.0;\r\n\r\n\r\n\r\ncontract WalletContract {\r\n    mapping(address => uint256) public balances;\r\n\r\n    event WalletCreated(address indexed user);\r\n\r\n    function createWallet() public {\r\n        require(balances[msg.sender] == 0, \"Wallet already exists\");\r\n        balances[msg.sender] = 100 ether; // Initial balance\r\n        emit WalletCreated(msg.sender);\r\n    }\r\n\r\n    function transfer(address _to, uint256 _amount) public {\r\n        require(balances[msg.sender] >= _amount, \"Insufficient balance\");\r\n        balances[msg.sender] -= _amount;\r\n        balances[_to] += _amount;\r\n    }\r\n}\r\n",
  "sourcePath": "C:\\Users\\16032\\Downloads\\Dapp (3)\\Dapp (2)\\Dapp\\contracts\\WalletContract.sol",
  "compiler": {
    "name": "solc",
    "version": "0.5.1+commit.c8a2cb62.Emscripten.clang"
  },
  "schemaVersion": "3.4.16",
  "updatedAt": "2024-04-30T16:03:19.956Z",
  "networkType": "ethereum",
  "devdoc": {
    "methods": {}
  },
  "userdoc": {
    "methods": {}
  }
}